:100000000C942A000C9447000C9447000C94470071
:100010000C9447000C9447000C9447000C94470044
:100020000C9447000C9447000C9447000C94470034
:100030000C9447000C9447000C9447000C94470024
:100040000C9447000C9447000C9447000C94AB08A8
:100050000C94470011241FBECFE5D4E0DEBFCDBF16
:1000600010E0A0E6B0E0EEEEFAE202C005900D92DC
:10007000A638B107D9F710E0A6E8B0E001C01D929C
:10008000A738B107E1F70E9497140C9475150C94EA
:100090000000EF92FF920F931F937B018C0120E0F1
:1000A00030E040E05FE40E94490388238CF0C801FF
:1000B000B70120E030E040E05FE40E94C1010E940F
:1000C000A9039B01AC01205030404040504806C07D
:1000D000C801B7010E94A9039B01AC01B901CA0183
:1000E0001F910F91FF90EF900895A0E0B0E0EBE733
:1000F000F0E00C943E15DC012B01FA019C9192304A
:1001000008F439C1EB018881823008F433C194309E
:1001100069F4843009F02FC111969C91119789815F
:10012000981709F428C1AFE6B0E025C1843009F47E
:1001300021C18230A9F4923009F01DC19A01AD01AC
:1001400088E0EA010990AE01E90109929E0181501F
:10015000C1F7E201898111969C918923818308C1AD
:10016000923009F407C112962D903C901397EB0141
:100170008A819B811496AD90BD90CD90DC901797AD
:10018000EC80FD800E811F819101281B390BB90184
:1001900037FF04C066277727621B730B6032710537
:1001A0000CF061C0121613066CF537014801062EDB
:1001B00004C096948794779467940A94D2F721E0C8
:1001C00030E040E050E004C0220F331F441F551FB1
:1001D0006A95D2F721503040404050402E213F21B7
:1001E00040235123211531054105510521F021E01E
:1001F00030E040E050E079018A01E628F72808293C
:1002000019293CC0232BD1F1260E371E350146019A
:10021000062E04C096948794779467940A94D2F734
:1002200021E030E040E050E004C0220F331F441FC3
:10023000551F6A95D2F721503040404050402A2146
:100240003B214C215D21211531054105510521F04E
:1002500021E030E040E050E059016A01A628B728CB
:10026000C828D9280BC0821593052CF01C01AA249C
:10027000BB24650103C0EE24FF24870111969C91E5
:10028000D20111968C91981709F445C0992339F041
:10029000A80197012A193B094C095D0906C0A6016E
:1002A00095012E193F09400B510B57FD08C01182D3
:1002B0003382228224833583468357831DC081E0A5
:1002C00081833382228288279927DC01821B930B4A
:1002D000A40BB50B84839583A683B7830DC0220F2F
:1002E000331F441F551F24833583468357838281E0
:1002F000938101979383828324813581468157813D
:10030000DA01C9010197A109B1098F5F9F4FAF4F72
:10031000BF4328F30BC0918333822282EA0CFB1C7B
:100320000C1D1D1DE482F5820683178383E0808304
:10033000248135814681578157FF1AC0C901AA27F8
:1003400097FDA095BA2F81709070A070B0705695EF
:10035000479537952795822B932BA42BB52B848318
:100360009583A683B7838281938101969383828349
:10037000DF0101C0D201CD01CDB7DEB7E2E10C94BF
:100380005A15A0E2B0E0E7ECF1E00C944A1569835D
:100390007A838B839C832D833E834F835887E9E048
:1003A000EE2EF12CEC0EFD1ECE010196B7010E943F
:1003B000D2048E010F5E1F4FCE010596B8010E9438
:1003C000D2048A8991E089278A8BC701B801AE01DE
:1003D000475E5F4F0E9475000E94FD03A096E6E015
:1003E0000C946615A0E2B0E0E8EFF1E00C944A1539
:1003F00069837A838B839C832D833E834F835887C5
:10040000F9E0EF2EF12CEC0EFD1ECE010196B701A6
:100410000E94D2048E010F5E1F4FCE010596B801D7
:100420000E94D204C701B801AE01475E5F4F0E942F
:1004300075000E94FD03A096E6E00C946615A0E20C
:10044000B0E0E5E2F2E00C943E1569837A838B8399
:100450009C832D833E834F835887CE010196BE0136
:10046000675F7F4F0E94D204CE010596BE016F5E8A
:100470007F4F0E94D2049985923088F0898982301A
:10048000C8F0943019F4823051F404C0843029F457
:10049000923081F48FE690E0C6C0923049F420E0BB
:1004A0009A858A89981321E02A87CE010996BBC0D4
:1004B000823049F420E09A858A89981321E02A8BBA
:1004C000CE014196B0C02D843E844F8458886D88FB
:1004D0007E888F88988CEE24FF248701AA24BB2471
:1004E000650140E050E060E070E0E0E0F0E0C10174
:1004F00081709070892BE9F0E60CF71C081D191D1E
:100500009A01AB012A0D3B1D4C1D5D1D80E090E062
:10051000A0E0B0E0E614F7040805190520F481E036
:1005200090E0A0E0B0E0BA01A901480F591F6A1F8E
:100530007B1FAA0CBB1CCC1CDD1C97FE08C081E0F5
:1005400090E0A0E0B0E0A82AB92ACA2ADB2A3196B6
:10055000E032F10549F0660C771C881C991C569412
:10056000479437942794C3CFFA85EA892B893C892D
:100570008B859C85280F391F2E5F3F4F17C0CA01FE
:1005800081709070892B61F016950795F794E79428
:1005900080E090E0A0E0B0E8E82AF92A0A2B1B2BC3
:1005A00076956795579547952F5F3F4F77FDE7CF36
:1005B0000CC0440F551F661F771F17FD4160EE0CDE
:1005C000FF1C001F111F21503040403090E05907A0
:1005D00090E0690790E4790760F32B8F3C8FDB0193
:1005E000CA018F779070A070B07080349105A1051A
:1005F000B10561F447FD0AC0E114F10401051105DC
:1006000029F0405C5F4F6F4F7F4F40781A8EFE1786
:1006100011F081E08A8F4D8F5E8F6F8F78A383E01A
:10062000898FCE0149960E94FD03A096E2E10C94C9
:100630005A15A8E1B0E0EFE1F3E00C944A156983A4
:100640007A838B839C832D833E834F83588789E0F5
:10065000E82EF12CEC0EFD1ECE010196B7010E9492
:10066000D2048E010F5E1F4FCE010596B8010E9485
:10067000D2048985823040F08989823028F0C70110
:10068000B8010E944A0501C08FEF6896E6E00C941D
:100690006615A8E1B0E0EFE4F3E00C944A15698335
:1006A0007A838B839C832D833E834F83588789E095
:1006B000E82EF12CEC0EFD1ECE010196B7010E9432
:1006C000D2048E010F5E1F4FCE010596B8010E9425
:1006D000D2048985823040F08989823028F0C701B0
:1006E000B8010E944A0501C08FEF6896E6E00C94BD
:1006F0006615A8E1B0E0EFE7F3E00C944A156983D2
:100700007A838B839C832D833E834F83588789E034
:10071000E82EF12CEC0EFD1ECE010196B7010E94D1
:10072000D2048E010F5E1F4FCE010596B8010E94C4
:10073000D2048985823040F08989823028F0C7014F
:10074000B8010E944A0501C081E06896E6E00C9479
:100750006615ACE0B0E0EFEAF3E00C944E15698367
:100760007A838B839C83CE010196BE016B5F7F4FA2
:100770000E94D2048D81823061F1823050F1843048
:1007800021F48E81882351F12EC02F81388537FDC9
:1007900020C06E812F3131051CF06623F9F023C093
:1007A0008EE190E0821B930B29853A854B855C8511
:1007B00004C056954795379527958A95D2F76623B5
:1007C000B1F050954095309521953F4F4F4F5F4F79
:1007D0000EC020E030E040E050E009C02FEF3FEFD6
:1007E0004FEF5FE704C020E030E040E050E8B9019F
:1007F000CA012C96E2E00C946A15DF92EF92FF9208
:100800000F931F93FC01E480F58006811781D1804E
:100810008081823048F480E090E0A0E1B0E0E82AF6
:10082000F92A0A2B1B2BA5C0843009F49FC0823003
:1008300021F4EE24FF24870105C0E114F104010531
:10084000110519F4E0E0F0E096C0628173819FEF3A
:10085000623879070CF05BC022E83FEF261B370BAC
:100860002A3131052CF020E030E040E050E02AC091
:10087000B801A701022E04C0769567955795479554
:100880000A94D2F781E090E0A0E0B0E004C0880FC5
:10089000991FAA1FBB1F2A95D2F70197A109B10979
:1008A0008E219F21A023B1230097A105B10521F03E
:1008B00081E090E0A0E0B0E09A01AB01282B392B59
:1008C0004A2B5B2BDA01C9018F779070A070B07052
:1008D00080349105A105B10539F427FF09C0205CDA
:1008E0003F4F4F4F5F4F04C0215C3F4F4F4F5F4F13
:1008F000E0E0F0E02030A0E03A07A0E04A07A0E402
:100900005A0710F0E1E0F0E079018A0127C0603871
:10091000710564F5FB01E158FF4FD801C7018F77DE
:100920009070A070B07080349105A105B10539F4C4
:10093000E7FE0DC080E490E0A0E0B0E004C08FE3EB
:1009400090E0A0E0B0E0E80EF91E0A1F1B1F17FFA1
:1009500005C016950795F794E794319687E01695AC
:100960000795F794E7948A95D1F705C0EE24FF2404
:100970008701EFEFF0E06E2F679566276795902F60
:100980009F77D794DD24D7948E2F8695492F462BB9
:10099000582F5D29B701CA011F910F91FF90EF9069
:1009A000DF900895FC01DB01408151812281622F9B
:1009B0006F7770E0221F2227221F9381892F880FD3
:1009C000822B282F30E0991F9927991F11969C930D
:1009D000119721153105A9F54115510561057105DD
:1009E00011F482E037C082E89FEF13969C938E93B8
:1009F00012979A01AB0167E0220F331F441F551F66
:100A00006A95D1F783E08C930DC0220F331F441FEA
:100A1000551F12968D919C911397019713969C9355
:100A20008E931297203080E0380780E0480780E4FA
:100A3000580758F314962D933D934D935C93179755
:100A400008952F3F310579F4411551056105710570
:100A500019F484E08C93089564FF03C081E08C93C3
:100A600012C01C9210C02F57304013963C932E9307
:100A7000129783E08C9387E0440F551F661F771F02
:100A80008A95D1F7706414964D935D936D937C9322
:100A9000179708951F93DC01FB019C91923008F495
:100AA00047C08081823008F443C0943051F41196DD
:100AB0001C91843099F58181682F70E0611B710968
:100AC0003FC0843021F0923031F48230B9F181811D
:100AD000882389F12DC011961C9111978230F1F075
:100AE00081811817D9F412962D913C911397828128
:100AF00093818217930794F028173907BCF0149656
:100B00008D919D910D90BC91A02D248135814681C0
:100B10005781281739074A075B0718F4112341F05A
:100B20000AC082179307A407B50740F4112319F0F0
:100B300061E070E005C06FEF7FEF02C060E070E041
:100B4000CB011F910895DF93CF93CDB7DEB7EAE3D2
:100B5000F0E08FEC8083E7E3F0E08FEA8083E4E36A
:100B6000F0E08FEF8083E1E3F0E08BEF8083CF91C3
:100B7000DF910895DF93CF93CDB7DEB72B970FB6F4
:100B8000F894DEBF0FBECDBF8A836B8319828A8142
:100B90008830D8F58B81282F30E03B872A878A85DB
:100BA0009B85009731F02A853B8521303105B1F0D6
:100BB00029C0ABE3B0E0EBE3F0E08081482F8A810D
:100BC000282F30E081E090E0022E02C0880F991FAC
:100BD0000A94E2F7809584238C93EBC0ABE3B0E0FA
:100BE000EBE3F0E08081482F8A81282F30E081E01C
:100BF00090E0022E02C0880F991F0A94E2F7842B1E
:100C00008C93D7C082E08983D4C08A81883008F46D
:100C100042C08A81803108F03EC08A8187708A8311
:100C20008B81282F30E03987288788859985009720
:100C300031F02885398521303105B1F029C0A8E38C
:100C4000B0E0E8E3F0E08081482F8A81282F30E08F
:100C500081E090E0022E02C0880F991F0A94E2F70B
:100C6000809584238C93A5C0A8E3B0E0E8E3F0E08E
:100C70008081482F8A81282F30E081E090E0022E89
:100C800002C0880F991F0A94E2F7842B8C9391C0BD
:100C900082E089838EC08A81803108F442C08A81D3
:100CA000883108F03EC08A8187708A838B81282F23
:100CB00030E03F832E838E819F81009731F02E811B
:100CC0003F8121303105B1F029C0A5E3B0E0E5E373
:100CD000F0E08081482F8A81282F30E081E090E089
:100CE000022E02C0880F991F0A94E2F78095842390
:100CF0008C935FC0A5E3B0E0E5E3F0E08081482F8E
:100D00008A81282F30E081E090E0022E02C0880F17
:100D1000991F0A94E2F7842B8C934BC082E089835D
:100D200048C08A81883108F442C08A81803208F044
:100D30003EC08A8187708A838B81282F30E03D8373
:100D40002C838C819D81009731F02C813D81213055
:100D50003105B1F029C0A2E3B0E0E2E3F0E0808128
:100D6000482F8A81282F30E081E090E0022E02C0D7
:100D7000880F991F0A94E2F7809584238C9319C0F9
:100D8000A2E3B0E0E2E3F0E08081482F8A81282FDF
:100D900030E081E090E0022E02C0880F991F0A9493
:100DA000E2F7842B8C9305C082E0898302C082E045
:100DB000898389812B960FB6F894DEBF0FBECDBF15
:100DC000CF91DF910895DF93CF9300D000D0CDB7BE
:100DD000DEB78A837C836B8319828A818830A0F492
:100DE000E9E3F0E08081282F30E08A81882F90E0CD
:100DF000A90102C0559547958A95E2F7CA0181700D
:100E0000EB81FC81808359C08A818830D0F08A814F
:100E10008031B8F48A8187708A83E6E3F0E08081CC
:100E2000282F30E08A81882F90E0A90102C05595D3
:100E300047958A95E2F7CA018170EB81FC81808336
:100E40003CC08A818031D0F08A818831B8F48A81AF
:100E500087708A83E3E3F0E08081282F30E08A8185
:100E6000882F90E0A90102C0559547958A95E2F731
:100E7000CA018170EB81FC8180831FC08A81883127
:100E8000D0F08A818032B8F48A8187708A83E0E367
:100E9000F0E08081282F30E08A81882F90E0A9013E
:100EA00002C0559547958A95E2F7CA018170EB819A
:100EB000FC81808302C082E0898389810F900F903A
:100EC0000F900F90CF91DF910895DF93CF9300D0D3
:100ED000CDB7DEB789836A8389816A810E94BA05AA
:100EE0000F900F90CF91DF910895DF93CF93CDB7FF
:100EF000DEB7E0E2F0E084E18083A1E2B0E0E1E28D
:100F0000F0E0808181608C93E2E2F0E08FEE8083FC
:100F1000E6E5F0E084E08083CF91DF910895DF93F0
:100F2000CF93CDB7DEB7A6E5B0E0E6E5F0E080818F
:100F300084608C93CF91DF910895DF93CF93CDB7E9
:100F4000DEB7A6E5B0E0E6E5F0E080818B7F8C932C
:100F5000CF91DF910895DF93CF930F92CDB7DEB796
:100F60001982E6E5F0E08081881F8827881F81309C
:100F700079F4E6E5F0E08081898389818F77898340
:100F8000898181608983E6E5F0E08981808307C0FB
:100F9000A6E5B0E0E6E5F0E0808181608C930F90FB
:100FA000CF91DF910895DF93CF930F92CDB7DEB746
:100FB0001982E6E5F0E08081881F8827881F81304C
:100FC00079F4E6E5F0E08081898389818F778983F0
:100FD00089818E7F8983E6E5F0E08981808307C07F
:100FE000A6E5B0E0E6E5F0E080818E7F8C930F907F
:100FF000CF91DF910895DF93CF9300D0CDB7DEB7C7
:101000009A83898389819A8190937800809377006D
:101010000F900F90CF91DF910895DF93CF930F92B0
:10102000CDB7DEB71982E6E5F0E080818170898373
:101030008981846A8983E6E5F0E0898180830F9065
:10104000CF91DF910895DF93CF93CDB7DEB70E94A4
:101050000D08CF91DF910895DF93CF930F92CDB715
:10106000DEB71982E6E5F0E08081817089838981AD
:1010700084698983E6E5F0E0898180830F90CF91D0
:10108000DF910895DF93CF9300D0CDB7DEB78A8389
:101090001982E6E5F0E08081817089838981846826
:1010A0008983E3E2F0E08A818083E6E5F0E08981EC
:1010B00080830F900F90CF91DF910895DF93CF93AE
:1010C000CDB7DEB7E3E2F0E08081CF91DF91089504
:1010D000DF93CF930F92CDB7DEB71982E6E5F0E04C
:1010E0008081817089838981846C8983E6E5F0E061
:1010F000898180830F90CF91DF910895DF93CF9303
:101100000F92CDB7DEB71982E6E5F0E080818170FD
:101110008983898184688983E6E5F0E08981808319
:101120000F90CF91DF910895DF93CF93CDB7DEB7C6
:10113000E6E5F0E080818823DCF7CF91DF91089528
:10114000DF93CF93CDB7DEB7E1E2F0E08081887F17
:10115000CF91DF9108951F920F920FB60F92112435
:101160002F933F934F935F936F937F938F939F93AF
:10117000AF93BF93EF93FF93DF93CF93CDB7DEB7DA
:10118000E0917700F09178000995CF91DF91FF9180
:10119000EF91BF91AF919F918F917F916F915F91EF
:1011A0004F913F912F910F900FBE0F901F90189568
:1011B000DF93CF93CDB7DEB7CF91DF9108950F9333
:1011C0001F93DF93CF93CDB7DEB7C058D0400FB693
:1011D000F894DEBF0FBECDBFFE01E158FF4F108275
:1011E000FE01E158FF4F10824AC7FE01E158FF4F50
:1011F0008081282F30E0C901880F991F820F931F2B
:10120000880F991F880F991F820F931FFC01E758C1
:10121000FF4F8081813009F052C4FE01E558FF4F35
:1012200080E090E0A0EFB1E480839183A283B38358
:101230008E0109581F4FFE01E558FF4F60817181F3
:101240008281938120E030E04AE753E40E941F024C
:10125000DC01CB01F80180839183A283B383FE017B
:10126000E958FF4F608171818281938120E030E0F5
:1012700040E85FE30E947903882344F4FE01EB58C1
:10128000FF4F81E090E09183808364C0FE01E958C4
:10129000FF4F608171818281938120E03FEF4FE7B2
:1012A00057E40E94190318160CF043C0FE01E558DC
:1012B000FF4F608171818281938120E030E040E2C4
:1012C00051E40E941F02DC01CB018E010B581F4F1D
:1012D000BC01CD010E944900DC01CB01F8019183E2
:1012E00080831FC0FE01ED58FF4F89E190E091839C
:1012F0008083FE01ED58FF4F808191810197F1F7C6
:10130000FE01ED58FF4F91838083DE01AB58BF4F44
:10131000FE01EB58FF4F80819181019711969C93BC
:101320008E93FE01EB58FF4F808191810097D1F69B
:1013300027C08E010B581F4FFE01E958FF4F6081F7
:101340007181828193810E944900DC01CB01F80107
:1013500091838083DE01AF58BF4FFE01EB58FF4FF2
:10136000808191818D939C93FE01EF58FF4F808186
:1013700091810197F1F7FE01EF58FF4F9183808330
:10138000FE01E158FF4F8081282F30E0C901880F0E
:10139000991F820F931F880F991F880F991F820F23
:1013A000931FFC01EB57FF4F80818170882F90E0E5
:1013B000880F991F880F991F880F991F482F406326
:1013C000FE01E158FF4F8081282F30E0C901880FCE
:1013D000991F820F931F880F991F880F991F820FE3
:1013E000931FFC01EB57FF4F808186958170882FFA
:1013F00090E0880F991F880F991F842BFE01E058F9
:10140000FF4F8083FE01E158FF4FDE01A058BF4F20
:1014100080816C910E945210FE01E359FF4F80E0E1
:1014200090E0A0E8BFE380839183A283B3838E0121
:1014300007591F4FFE01E359FF4F6081718182817F
:10144000938120E030E04AE753E40E941F02DC0170
:10145000CB01F80180839183A283B383FE01E75916
:10146000FF4F608171818281938120E030E040E80C
:101470005FE30E947903882344F4FE01E959FF4F9A
:1014800081E090E09183808364C0FE01E759FF4FC3
:10149000608171818281938120E03FEF4FE757E4C3
:1014A0000E94190318160CF043C0FE01E359FF4FC8
:1014B000608171818281938120E030E040E251E4DB
:1014C0000E941F02DC01CB018E0109591F4FBC0194
:1014D000CD010E944900DC01CB01F801918380839A
:1014E0001FC0FE01EB59FF4F89E190E0918380839B
:1014F000FE01EB59FF4F808191810197F1F7FE01C9
:10150000EB59FF4F91838083DE01A959BF4FFE0144
:10151000E959FF4F80819181019711969C938E9399
:10152000FE01E959FF4F808191810097D1F627C0D4
:101530008E0109591F4FFE01E759FF4F60817181EC
:10154000828193810E944900DC01CB01F8019183E3
:101550008083DE01AD59BF4FFE01E959FF4F808105
:1015600091818D939C93FE01ED59FF4F8081918174
:101570000197F1F7FE01ED59FF4F91838083FE0142
:10158000E158FF4F8081282F30E0C901880F991F53
:10159000820F931F880F991F880F991F820F931F27
:1015A000FC01EB57FF4F8081869586958170882FCF
:1015B00090E0880F991F880F991F482F4860FE01FF
:1015C000E158FF4F8081282F30E0C901880F991F13
:1015D000820F931F880F991F880F991F820F931FE7
:1015E000FC01EB57FF4F808186958695869581702B
:1015F000882F90E0880F991F482BFE01E158FF4F7C
:101600008081282F30E0C901880F991F820F931F16
:10161000880F991F880F991F820F931FFC01EB57AA
:10162000FF4F808182958F708170842BFE01E0587E
:10163000FF4F8083FE01E158FF4FDE01A058BF4FEE
:1016400080816C910E945210FE01E15AFF4F80E0B0
:1016500090E0A0E8BFE380839183A283B3838E01EF
:10166000055A1F4FFE01E15AFF4F6081718182814F
:10167000938120E030E04AE753E40E941F02DC013E
:10168000CB01F80180839183A283B383FE01E55AE5
:10169000FF4F608171818281938120E030E040E8DA
:1016A0005FE30E947903882344F4FE01E75AFF4F69
:1016B00081E090E09183808364C0FE01E55AFF4F92
:1016C000608171818281938120E03FEF4FE757E491
:1016D0000E94190318160CF043C0FE01E15AFF4F97
:1016E000608171818281938120E030E040E251E4A9
:1016F0000E941F02DC01CB018E01075A1F4FBC0163
:10170000CD010E944900DC01CB01F8019183808367
:101710001FC0FE01E95AFF4F89E190E09183808369
:10172000FE01E95AFF4F808191810197F1F7FE0197
:10173000E95AFF4F91838083DE01A75ABF4FFE0114
:10174000E75AFF4F80819181019711969C938E9368
:10175000FE01E75AFF4F808191810097D1F627C0A3
:101760008E01075A1F4FFE01E55AFF4F60817181BC
:10177000828193810E944900DC01CB01F8019183B1
:101780008083DE01AB5ABF4FFE01E75AFF4F8081D5
:1017900091818D939C93FE01EB5AFF4F8081918143
:1017A0000197F1F7FE01EB5AFF4F91838083FE0111
:1017B000E158FF4F808161E00E945210FE01EF5A14
:1017C000FF4F80E090E0A0E0B0E480839183A283AB
:1017D000B3838E01035B1F4FFE01EF5AFF4F608101
:1017E00071818281938120E030E04AE753E40E94D6
:1017F0001F02DC01CB01F80180839183A283B383B4
:10180000FE01E35BFF4F608171818281938120E063
:1018100030E040E85FE30E947903882344F4FE014E
:10182000E55BFF4F81E090E09183808364C0FE011F
:10183000E35BFF4F608171818281938120E03FEF04
:101840004FE757E40E94190318160CF043C0FE013D
:10185000EF5AFF4F608171818281938120E030E0F7
:1018600040E251E40E941F02DC01CB018E01055BC6
:101870001F4FBC01CD010E944900DC01CB01F801E2
:10188000918380831FC0FE01E75BFF4F89E190E0F9
:1018900091838083FE01E75BFF4F808191810197F7
:1018A000F1F7FE01E75BFF4F91838083DE01A55BCB
:1018B000BF4FFE01E55BFF4F80819181019711963B
:1018C0009C938E93FE01E55BFF4F80819181009791
:1018D000D1F627C08E01055B1F4FFE01E35BFF4F72
:1018E00060817181828193810E944900DC01CB017A
:1018F000F80191838083DE01A95BBF4FFE01E55BA8
:10190000FF4F808191818D939C93FE01E95BFF4F96
:10191000808191810197F1F7FE01E95BFF4F91838F
:101920008083FE01E158FF4F8081282F30E0C901FC
:10193000880F991F820F931F880F991F880F991F77
:10194000820F931FFC01EB57FF4F80818295869594
:1019500087708170882F90E0880F991F482F44600E
:10196000FE01E158FF4F8081282F30E0C901880F28
:10197000991F820F931F880F991F880F991F820F3D
:10198000931FFC01EB57FF4F8081829586958695CA
:1019900083708170842BFE01E058FF4F8083FE012D
:1019A000E158FF4FDE01A058BF4F80816C910E942B
:1019B0005210FE01ED5BFF4F80E090E0A0E8BFE336
:1019C00080839183A283B3838E01015C1F4FFE014C
:1019D000ED5BFF4F608171818281938120E030E077
:1019E0004AE753E40E941F02DC01CB01F801808327
:1019F0009183A283B383FE01FF966081718182810E
:101A0000938120E030E040E85FE30E94790388237F
:101A10002CF481E090E09EAF8DAF46C0FE01FF96B2
:101A2000608171818281938120E03FEF4FE757E42D
:101A30000E941903181664F5FE01ED5BFF4F6081EB
:101A400071818281938120E030E040E251E40E9484
:101A50001F02DC01CB01BC01CD010E944900DC0169
:101A6000CB019EAF8DAF0FC089E190E09CAF8BAFF3
:101A70008BAD9CAD0197F1F79CAF8BAF8DAD9EAD5B
:101A800001979EAF8DAF8DAD9EAD009769F7EEC209
:101A9000FE01FF9660817181828193810E944900DD
:101AA000DC01CB019EAF8DAF8DAD9EAD9AAF89AFFE
:101AB00089AD9AAD0197F1F79AAF89AFD7C2FE0110
:101AC000E158FF4F808162E20E94521081E08093D2
:101AD0008600FE01E158FF4F8081282F30E0C901C8
:101AE000880F991F820F931F880F991F880F991FC6
:101AF000820F931FFC01EB57FF4F80818170882F6D
:101B000090E09695982F882797958795482FFE0106
:101B1000E158FF4F8081282F30E0C901880F991FBD
:101B2000820F931F880F991F880F991F820F931F91
:101B3000FC01EB57FF4F808186958170882F90E0E4
:101B40000024969587950794969587950794982FE6
:101B5000802D842BFE01E058FF4F8083FE01E15869
:101B6000FF4FDE01A058BF4F80816C910E94521040
:101B70001092860080E090E0A0E8BFE38DAB9EABC2
:101B8000AFABB8AF6DA97EA98FA998AD20E030E0CA
:101B90004AE753E40E941F02DC01CB0189AB9AABF8
:101BA000ABABBCAB69A97AA98BA99CA920E030E0BA
:101BB00040E85FE30E94790388232CF481E090E001
:101BC00098AB8FA73FC069A97AA98BA99CA920E0EF
:101BD0003FEF4FE757E40E94190318164CF56DA923
:101BE0007EA98FA998AD20E030E040E251E40E9448
:101BF0001F02DC01CB01BC01CD010E944900DC01C8
:101C0000CB0198AB8FA70FC089E190E09EA78DA76D
:101C10008DA59EA50197F1F79EA78DA78FA598A9E1
:101C2000019798AB8FA78FA598A9009769F714C063
:101C300069A97AA98BA99CA90E944900DC01CB0162
:101C400098AB8FA78FA598A99CA78BA78BA59CA5C0
:101C50000197F1F79CA78BA7FE01E158FF4F808108
:101C6000282F30E0C901880F991F820F931F880F1A
:101C7000991F880F991F820F931FFC01EB57FF4F8D
:101C80008081869586958170882F90E0880F991FB6
:101C9000880F991F482F4860FE01E158FF4F80814F
:101CA000282F30E0C901880F991F820F931F880FDA
:101CB000991F880F991F820F931FFC01EB57FF4F4D
:101CC00080818695869586958170882F90E0880F13
:101CD000991F482BFE01E158FF4F8081282F30E0EB
:101CE000C901880F991F820F931F880F991F880FB2
:101CF000991F820F931FFC01EB57FF4F8081829544
:101D00008F708170842BFE01E058FF4F8083FE01AD
:101D1000E158FF4FDE01A058BF4F80816C910E94B7
:101D2000521080E090E0A0E8BFE38FA398A7A9A796
:101D3000BAA76FA178A589A59AA520E030E04AE767
:101D400053E40E941F02DC01CB018BA39CA3ADA333
:101D5000BEA36BA17CA18DA19EA120E030E040E854
:101D60005FE30E94790388232CF481E090E09AA33A
:101D700089A33FC06BA17CA18DA19EA120E03FEF74
:101D80004FE757E40E94190318164CF56FA178A588
:101D900089A59AA520E030E040E251E40E941F02AC
:101DA000DC01CB01BC01CD010E944900DC01CB016B
:101DB0009AA389A30FC089E190E098A38F8F8F8D9C
:101DC00098A10197F1F798A38F8F89A19AA1019704
:101DD0009AA389A389A19AA1009769F714C06BA15E
:101DE0007CA18DA19EA10E944900DC01CB019AA398
:101DF00089A389A19AA19E8F8D8F8D8D9E8D01972C
:101E0000F1F79E8F8D8FFE01E158FF4F808161E0D9
:101E10000E94521080E090E0A0E0B0E4898F9A8F99
:101E2000AB8FBC8F698D7A8D8B8D9C8D20E030E0DF
:101E30004AE753E40E941F02DC01CB018D8B9E8B8D
:101E4000AF8BB88F6D897E898F89988D20E030E0C7
:101E500040E85FE30E94790388232CF481E090E05E
:101E60009C8B8B8B3FC06D897E898F89988D20E0FC
:101E70003FEF4FE757E40E94190318164CF5698DA0
:101E80007A8D8B8D9C8D20E030E040E251E40E9401
:101E90001F02DC01CB01BC01CD010E944900DC0125
:101EA000CB019C8B8B8B0FC089E190E09A8B898B47
:101EB00089899A890197F1F79A8B898B8B899C89FB
:101EC00001979C8B8B8B8B899C89009769F714C039
:101ED0006D897E898F89988D0E944900DC01CB0134
:101EE0009C8B8B8B8B899C89988B8F878F8598890E
:101EF0000197F1F7988B8F87FE01E158FF4F8081A2
:101F0000282F30E0C901880F991F820F931F880F77
:101F1000991F880F991F820F931FFC01EB57FF4FEA
:101F200080818295869587708170882F90E0880FD8
:101F3000991F482F4460FE01E158FF4F8081282FF0
:101F400030E0C901880F991F820F931F880F991FD6
:101F5000880F991F820F931FFC01EB57FF4F808161
:101F600082958695869583708170842BFE01E0585A
:101F7000FF4F8083FE01E158FF4FDE01A058BF4FA5
:101F800080816C910E94521080E090E0A0E8BFE355
:101F90008B879C87AD87BE876B857C858D859E856D
:101FA00020E030E04AE753E40E941F02DC01CB014D
:101FB0008F839887A987BA876F81788589859A8565
:101FC00020E030E040E85FE30E94790388232CF4AE
:101FD00081E090E09E838D833FC06F817885898505
:101FE0009A8520E03FEF4FE757E40E941903181647
:101FF0004CF56B857C858D859E8520E030E040E248
:1020000051E40E941F02DC01CB01BC01CD010E9402
:102010004900DC01CB019E838D830FC089E190E0F4
:102020009C838B838B819C810197F1F79C838B83AD
:102030008D819E8101979E838D838D819E810097E6
:1020400069F714C06F81788589859A850E94490057
:10205000DC01CB019E838D838D819E819A83898350
:1020600089819A810197F1F79A838983DE01A158CA
:10207000BF4FFE01E158FF4F80818F5F8C93FE01BF
:10208000E158FF4F8081882309F4AFC8C058DF4F63
:102090000FB6F894DEBF0FBECDBFCF91DF911F9179
:1020A0000F910895DF93CF9300D0CDB7DEB789832A
:1020B0006A838981282F30E0C901880F991F820F18
:1020C000931F880F991F880F991F820F931FFC0180
:1020D000E658FF4F808160E00E94BA0589816A81DD
:1020E0000E949C100F900F90CF91DF910895DF9385
:1020F000CF9300D0CDB7DEB789836A838981282F3B
:1021000030E0C901880F991F820F931F880F991F14
:10211000880F991F820F931FFC01E658FF4F8081A3
:1021200061E00E94BA0589816A810E949C100F902B
:102130000F90CF91DF910895DF93CF9300D0CDB76B
:10214000DEB789836A838981282F30E0C901880F2F
:10215000991F820F931F880F991F880F991F820F55
:10216000931FFC01E758FF4F8081813031F480E0FC
:1021700069814A810E94EF102DC08981282F30E0AB
:10218000C901880F991F820F931F880F991F880F0D
:10219000991F820F931FFC01E558FF4F808160E07B
:1021A0000E94BA0580918600813031F484E0698113
:1021B0004A810E94EF100EC084E069814A810E942A
:1021C000EF108A818295807F8A8384E069814A81C9
:1021D0000E94EF100F900F90CF91DF910895DF9341
:1021E000CF93CDB7DEB7A0970FB6F894DEBF0FBE82
:1021F000CDBF8E8F6F8F48A38F8D282F30E0C90100
:10220000880F991F820F931F880F991F880F991F9E
:10221000820F931FFC01E558FF4F808160E00E9410
:10222000BA058F8D282F30E0C901880F991F820FC2
:10223000931F880F991F880F991F820F931FFC010E
:10224000E458FF4F808161E00E94BA058E8D8D8F2A
:102250002DC08F8D282F30E08D8D482F50E0C90183
:10226000880F991F820F931F880F991F880F991F3E
:10227000820F931F840F951FFC01E358FF4F40818D
:1022800088A1282F30E08D8D882F90E0B90102C001
:10229000759567958A95E2F7CB01982F9170842FF9
:1022A000692F0E94BA058D8D8F5F8D8F8D8D88303F
:1022B00080F280E090E0A0E8BFE3898F9A8FAB8F37
:1022C000BC8F698D7A8D8B8D9C8D20E030E04AE744
:1022D00053E40E941F02DC01CB018D8B9E8BAF8BE0
:1022E000B88F6D897E898F89988D20E030E040E835
:1022F0005FE30E94790388232CF481E090E09C8BBB
:102300008B8B3FC06D897E898F89988D20E03FEF50
:102310004FE757E40E94190318164CF5698D7A8D22
:102320008B8D9C8D20E030E040E251E40E941F0242
:10233000DC01CB01BC01CD010E944900DC01CB01D5
:102340009C8B8B8B0FC089E190E09A8B898B89895C
:102350009A890197F1F79A8B898B8B899C890197D0
:102360009C8B8B8B8B899C89009769F714C06D8936
:102370007E898F89988D0E944900DC01CB019C8B5E
:102380008B8B8B899C89988B8F878F8598890197F8
:10239000F1F7988B8F878F8D282F30E0C901880F38
:1023A000991F820F931F880F991F880F991F820F03
:1023B000931FFC01E458FF4F808160E00E94BA0542
:1023C00080E090E0A0E8BFE38B879C87AD87BE8765
:1023D0006B857C858D859E8520E030E04AE753E45F
:1023E0000E941F02DC01CB018F839887A987BA87DF
:1023F0006F81788589859A8520E030E040E85FE349
:102400000E94790388232CF481E090E09E838D83E1
:102410003FC06F81788589859A8520E03FEF4FE73F
:1024200057E40E94190318164CF56B857C858D8541
:102430009E8520E030E040E251E40E941F02DC0172
:10244000CB01BC01CD010E944900DC01CB019E8380
:102450008D830FC089E190E09C838B838B819C816D
:102460000197F1F79C838B838D819E8101979E83D9
:102470008D838D819E81009769F714C06F81788567
:1024800089859A850E944900DC01CB019E838D835A
:102490008D819E819A83898389819A810197F1F741
:1024A0009A838983A0960FB6F894DEBF0FBECDBF86
:1024B000CF91DF910895DF93CF9300D000D0CDB7B7
:1024C000DEB78A837C836B83198210C08981282FB1
:1024D00030E08B819C81FC01E20FF31F90818A81A7
:1024E000692F0E94771089818F5F89838981282FC6
:1024F00030E08B819C81FC01E20FF31F80818823F7
:1025000029F70F900F900F900F90CF91DF910895C2
:10251000DF93CF93CDB7DEB768970FB6F894DEBFE1
:102520000FBECDBF8E8B788F6F8B1E828F89988D5B
:102530009A8389838F89988D009729F58E8960E326
:102540000E9477103FC089819A812AE030E0B9016A
:102550000E942A159C838B838E81282F30E04B812B
:10256000CE010796FC01E20FF31F408389819A8117
:102570002AE030E0B9010E942A15CB019A838983B1
:102580008E818F5F8E8389819A810097E1F68E819B
:1025900081508D8314C08D81282F332727FD3095DE
:1025A000CE010796FC01E20FF31F8081982F905D0A
:1025B0008E89692F0E9477108D8181508D838D8146
:1025C00088234CF768960FB6F894DEBF0FBECDBFD8
:1025D000CF91DF910895DF93CF93CDB7DEB76C979E
:1025E0000FB6F894DEBF0FBECDBF0E940D0880E489
:1025F0000E9442080E9494088CE00E9442080E94B7
:10260000940880E090E0A0EAB0E4898F9A8FAB8FC5
:10261000BC8F698D7A8D8B8D9C8D20E030E04AE7F0
:1026200053E40E941F02DC01CB018D8B9E8BAF8B8C
:10263000B88F6D897E898F89988D20E030E040E8E1
:102640005FE30E94790388232CF481E090E09C8B67
:102650008B8B3FC06D897E898F89988D20E03FEFFD
:102660004FE757E40E94190318164CF5698D7A8DCF
:102670008B8D9C8D20E030E040E251E40E941F02EF
:10268000DC01CB01BC01CD010E944900DC01CB0182
:102690009C8B8B8B0FC089E190E09A8B898B898909
:1026A0009A890197F1F79A8B898B8B899C8901977D
:1026B0009C8B8B8B8B899C89009769F714C06D89E3
:1026C0007E898F89988D0E944900DC01CB019C8B0B
:1026D0008B8B8B899C89988B8F878F8598890197A5
:1026E000F1F7988B8F8781E00E9442080E9494083E
:1026F00080E090E0A0E0B0E48B879C87AD87BE8748
:102700006B857C858D859E8520E030E04AE753E42B
:102710000E941F02DC01CB018F839887A987BA87AB
:102720006F81788589859A8520E030E040E85FE315
:102730000E94790388232CF481E090E09E838D83AE
:102740003FC06F81788589859A8520E03FEF4FE70C
:1027500057E40E94190318164CF56B857C858D850E
:102760009E8520E030E040E251E40E941F02DC013F
:10277000CB01BC01CD010E944900DC01CB019E834D
:102780008D830FC089E190E09C838B838B819C813A
:102790000197F1F79C838B838D819E8101979E83A6
:1027A0008D838D819E81009769F714C06F81788534
:1027B00089859A850E944900DC01CB019E838D8327
:1027C0008D819E819A83898389819A810197F1F70E
:1027D0009A8389830E942C086C960FB6F894DEBF0A
:1027E0000FBECDBFCF91DF910895DF93CF93CDB7CB
:1027F000DEB760970FB6F894DEBF0FBECDBF988BE3
:102800008F8786C00E940D0880E40E944208EF85F1
:10281000F88920818F8598890196988B8F87822FE0
:102820000E9442080E9494080E942C0880E090E0D8
:10283000A0E8BFE38B879C87AD87BE876B857C85CF
:102840008D859E8520E030E04AE753E40E941F0218
:10285000DC01CB018F839887A987BA876F81788540
:1028600089859A8520E030E040E85FE30E947903A3
:1028700088232CF481E090E09E838D833FC06F819C
:10288000788589859A8520E03FEF4FE757E40E94DD
:10289000190318164CF56B857C858D859E8520E087
:1028A00030E040E251E40E941F02DC01CB01BC0198
:1028B000CD010E944900DC01CB019E838D830FC0B6
:1028C00089E190E09C838B838B819C810197F1F758
:1028D0009C838B838D819E8101979E838D838D81C7
:1028E0009E81009769F714C06F81788589859A85E4
:1028F0000E944900DC01CB019E838D838D819E81E6
:102900009A83898389819A810197F1F79A838983D0
:10291000EF85F8898081882309F074CF60960FB61F
:10292000F894DEBF0FBECDBFCF91DF910895DF9346
:10293000CF93CDB7DEB72E970FB6F894DEBF0FBE9C
:10294000CDBF0E94A3050E94750780E161E00E944F
:10295000650781E161E00E9465070E948F070E9480
:10296000AB070E94EB1280E090E0A8E4B2E48B8712
:102970009C87AD87BE876B857C858D859E8520E095
:1029800030E04AE753E40E941F02DC01CB018F8351
:102990009887A987BA876F81788589859A8520E08D
:1029A00030E040E85FE30E94790388232CF481E063
:1029B00090E09E838D833FC06F81788589859A855D
:1029C00020E03FEF4FE757E40E94190318164CF53B
:1029D0006B857C858D859E8520E030E040E251E46A
:1029E0000E941F02DC01CB01BC01CD010E94490005
:1029F000DC01CB019E838D830FC089E190E09C8335
:102A00008B838B819C810197F1F79C838B838D81D4
:102A10009E8101979E838D838D819E81009769F7AA
:102A200014C06F81788589859A850E944900DC01F0
:102A3000CB019E838D838D819E819A838983898139
:102A40009A810197F1F79A83898380E690E00E944A
:102A5000F513FFCFAA1BBB1B51E107C0AA1FBB1F69
:102A6000A617B70710F0A61BB70B881F991F5A951A
:102A7000A9F780959095BC01CD0108952F923F92C2
:102A80004F925F926F927F928F929F92AF92BF927E
:102A9000CF92DF92EF92FF920F931F93CF93DF932A
:102AA000CDB7DEB7CA1BDB0B0FB6F894DEBF0FBE87
:102AB000CDBF09942A88398848885F846E847D84D4
:102AC0008C849B84AA84B984C884DF80EE80FD80D6
:102AD0000C811B81AA81B981CE0FD11D0FB6F8944C
:0E2AE000DEBF0FBECDBFED010895F894FFCF0D
:102AEE0048656C6C6F2C204D617277616E21000011
:102AFE0000000000000000D80800000102101112B2
:062B0E0013141516172533
:00000001FF
