:100000000C942A000C9434000C9434000C943400AA
:100010000C9434000C9434000C9434000C94340090
:100020000C9434000C9434000C9434000C94340080
:100030000C9434000C9434000C9434000C94340070
:100040000C9434000C9434000C9434000C94340060
:100050000C94340011241FBECFE5D4E0DEBFCDBF29
:100060000E9408020C94A1020C940000DF93CF932D
:10007000CDB7DEB7EAE3F0E08FEF8083E7E3F0E0AF
:100080008FEF8083E4E3F0E08CE78083E1E3F0E04E
:100090008BE78083CF91DF910895DF93CF93CDB726
:1000A000DEB72B970FB6F894DEBF0FBECDBF8A83A5
:1000B0006B8319828A818830D8F58B81282F30E0B4
:1000C0003B872A878A859B85009731F02A853B8567
:1000D00021303105B1F029C0ABE3B0E0EBE3F0E053
:1000E0008081482F8A81282F30E081E090E0022E25
:1000F00002C0880F991F0A94E2F7809584238C939D
:10010000EBC0ABE3B0E0EBE3F0E08081482F8A8105
:10011000282F30E081E090E0022E02C0880F991F66
:100120000A94E2F7842B8C93D7C082E08983D4C0F1
:100130008A81883008F442C08A81803108F03EC04C
:100140008A8187708A838B81282F30E039872887BE
:1001500088859985009731F02885398521303105CA
:10016000B1F029C0A8E3B0E0E8E3F0E08081482FD7
:100170008A81282F30E081E090E0022E02C0880FB3
:10018000991F0A94E2F7809584238C93A5C0A8E375
:10019000B0E0E8E3F0E08081482F8A81282F30E04A
:1001A00081E090E0022E02C0880F991F0A94E2F7C6
:1001B000842B8C9391C082E089838EC08A818031A8
:1001C00008F442C08A81883108F03EC08A81877075
:1001D0008A838B81282F30E03F832E838E819F81FD
:1001E000009731F02E813F8121303105B1F029C0D7
:1001F000A5E3B0E0E5E3F0E08081482F8A81282F75
:1002000030E081E090E0022E02C0880F991F0A942E
:10021000E2F7809584238C935FC0A5E3B0E0E5E32B
:10022000F0E08081482F8A81282F30E081E090E043
:10023000022E02C0880F991F0A94E2F7842B8C9338
:100240004BC082E0898348C08A81883108F442C06B
:100250008A81803208F03EC08A8187708A838B81D0
:10026000282F30E03D832C838C819D81009731F0D5
:100270002C813D8121303105B1F029C0A2E3B0E0ED
:10028000E2E3F0E08081482F8A81282F30E081E08E
:1002900090E0022E02C0880F991F0A94E2F7809521
:1002A00084238C9319C0A2E3B0E0E2E3F0E0808104
:1002B000482F8A81282F30E081E090E0022E02C092
:1002C000880F991F0A94E2F7842B8C9305C082E073
:1002D000898302C082E0898389812B960FB6F894C6
:1002E000DEBF0FBECDBFCF91DF910895DF93CF93D7
:1002F00000D000D0CDB7DEB78A837C836B831982B0
:100300008A818830A0F4E9E3F0E08081282F30E092
:100310008A81882F90E0A90102C0559547958A955A
:10032000E2F7CA018170EB81FC81808359C08A8128
:100330008830D0F08A818031B8F48A8187708A83CE
:10034000E6E3F0E08081282F30E08A81882F90E07A
:10035000A90102C0559547958A95E2F7CA018170B7
:10036000EB81FC8180833CC08A818031D0F08A811E
:100370008831B8F48A8187708A83E3E3F0E0808172
:10038000282F30E08A81882F90E0A90102C055957E
:1003900047958A95E2F7CA018170EB81FC818083E1
:1003A0001FC08A818831D0F08A818032B8F48A8176
:1003B00087708A83E0E3F0E08081282F30E08A8133
:1003C000882F90E0A90102C0559547958A95E2F7DC
:1003D000CA018170EB81FC81808302C082E0898345
:1003E00089810F900F900F900F90CF91DF9108951A
:1003F000DF93CF9300D0CDB7DEB789836A8389813D
:100400006A810E944D000F900F90CF91DF91089567
:10041000DF93CF9300D0CDB7DEB70E94360080E1E6
:1004200061E00E94F80181E161E00E94F801198217
:100430001A8281E19E012F5F3F4FB9010E94760130
:100440009E012E5F3F4F80E1B9010E9476018981B4
:10045000882331F48A81813019F40E948A02E9CF1D
:100460008981813031F48A81882319F40E947302D2
:10047000E0CF8981882331F48A81882319F40E948E
:100480005C02D7CF0E944502D4CFDF93CF93CDB784
:10049000DEB780E060E00E944D0081E060E00E94F5
:1004A0004D0082E060E00E944D0083E060E00E9429
:1004B0004D00CF91DF910895DF93CF93CDB7DEB795
:1004C00080E061E00E944D0081E060E00E944D000C
:1004D00082E060E00E944D0083E061E00E944D00F8
:1004E000CF91DF910895DF93CF93CDB7DEB780E052
:1004F00060E00E944D0081E061E00E944D0082E0DA
:1005000061E00E944D0083E060E00E944D00CF91C9
:10051000DF910895DF93CF93CDB7DEB780E060E041
:100520000E944D0081E061E00E944D0082E060E0A9
:100530000E944D0083E061E00E944D00CF91DF9169
:060540000895F894FFCFBE
:00000001FF
