:100000000C942A000C9426080C9447000C9447008A
:100010000C9447000C9447000C9447000C94470044
:100020000C9447000C9447000C9447000C94470034
:100030000C9447000C9447000C9447000C94470024
:100040000C9447000C9447000C9447000C94470014
:100050000C94470011241FBECFE5D4E0DEBFCDBF16
:1000600010E0A0E6B0E0E0EFFCE202C005900D92E7
:10007000A239B107D9F710E0A2E9B0E001C01D92A2
:10008000AA39B107E1F70E9431130C9476160C944B
:100090000000EF92FF920F931F937B018C0120E0F1
:1000A00030E040E05FE40E94490388238CF0C801FF
:1000B000B70120E030E040E05FE40E94C1010E940F
:1000C000A9039B01AC01205030404040504806C07D
:1000D000C801B7010E94A9039B01AC01B901CA0183
:1000E0001F910F91FF90EF900895A0E0B0E0EBE733
:1000F000F0E00C94FA15DC012B01FA019C9192308E
:1001000008F439C1EB018881823008F433C194309E
:1001100069F4843009F02FC111969C91119789815F
:10012000981709F428C1A0E6B0E025C1843009F48D
:1001300021C18230A9F4923009F01DC19A01AD01AC
:1001400088E0EA010990AE01E90109929E0181501F
:10015000C1F7E201898111969C918923818308C1AD
:10016000923009F407C112962D903C901397EB0141
:100170008A819B811496AD90BD90CD90DC901797AD
:10018000EC80FD800E811F819101281B390BB90184
:1001900037FF04C066277727621B730B6032710537
:1001A0000CF061C0121613066CF537014801062EDB
:1001B00004C096948794779467940A94D2F721E0C8
:1001C00030E040E050E004C0220F331F441F551FB1
:1001D0006A95D2F721503040404050402E213F21B7
:1001E00040235123211531054105510521F021E01E
:1001F00030E040E050E079018A01E628F72808293C
:1002000019293CC0232BD1F1260E371E350146019A
:10021000062E04C096948794779467940A94D2F734
:1002200021E030E040E050E004C0220F331F441FC3
:10023000551F6A95D2F721503040404050402A2146
:100240003B214C215D21211531054105510521F04E
:1002500021E030E040E050E059016A01A628B728CB
:10026000C828D9280BC0821593052CF01C01AA249C
:10027000BB24650103C0EE24FF24870111969C91E5
:10028000D20111968C91981709F445C0992339F041
:10029000A80197012A193B094C095D0906C0A6016E
:1002A00095012E193F09400B510B57FD08C01182D3
:1002B0003382228224833583468357831DC081E0A5
:1002C00081833382228288279927DC01821B930B4A
:1002D000A40BB50B84839583A683B7830DC0220F2F
:1002E000331F441F551F24833583468357838281E0
:1002F000938101979383828324813581468157813D
:10030000DA01C9010197A109B1098F5F9F4FAF4F72
:10031000BF4328F30BC0918333822282EA0CFB1C7B
:100320000C1D1D1DE482F5820683178383E0808304
:10033000248135814681578157FF1AC0C901AA27F8
:1003400097FDA095BA2F81709070A070B0705695EF
:10035000479537952795822B932BA42BB52B848318
:100360009583A683B7838281938101969383828349
:10037000DF0101C0D201CD01CDB7DEB7E2E10C94BF
:100380001616A0E2B0E0E7ECF1E00C9406166983E3
:100390007A838B839C832D833E834F835887E9E048
:1003A000EE2EF12CEC0EFD1ECE010196B7010E943F
:1003B000D2048E010F5E1F4FCE010596B8010E9438
:1003C000D2048A8991E089278A8BC701B801AE01DE
:1003D000475E5F4F0E9475000E94FD03A096E6E015
:1003E0000C942216A0E2B0E0E8EFF1E00C940616BF
:1003F00069837A838B839C832D833E834F835887C5
:10040000F9E0EF2EF12CEC0EFD1ECE010196B701A6
:100410000E94D2048E010F5E1F4FCE010596B801D7
:100420000E94D204C701B801AE01475E5F4F0E942F
:1004300075000E94FD03A096E6E00C942216A0E24F
:10044000B0E0E5E2F2E00C94FA1569837A838B83DD
:100450009C832D833E834F835887CE010196BE0136
:10046000675F7F4F0E94D204CE010596BE016F5E8A
:100470007F4F0E94D2049985923088F0898982301A
:10048000C8F0943019F4823051F404C0843029F457
:10049000923081F480E690E0C6C0923049F420E0CA
:1004A0009A858A89981321E02A87CE010996BBC0D4
:1004B000823049F420E09A858A89981321E02A8BBA
:1004C000CE014196B0C02D843E844F8458886D88FB
:1004D0007E888F88988CEE24FF248701AA24BB2471
:1004E000650140E050E060E070E0E0E0F0E0C10174
:1004F00081709070892BE9F0E60CF71C081D191D1E
:100500009A01AB012A0D3B1D4C1D5D1D80E090E062
:10051000A0E0B0E0E614F7040805190520F481E036
:1005200090E0A0E0B0E0BA01A901480F591F6A1F8E
:100530007B1FAA0CBB1CCC1CDD1C97FE08C081E0F5
:1005400090E0A0E0B0E0A82AB92ACA2ADB2A3196B6
:10055000E032F10549F0660C771C881C991C569412
:10056000479437942794C3CFFA85EA892B893C892D
:100570008B859C85280F391F2E5F3F4F17C0CA01FE
:1005800081709070892B61F016950795F794E79428
:1005900080E090E0A0E0B0E8E82AF92A0A2B1B2BC3
:1005A00076956795579547952F5F3F4F77FDE7CF36
:1005B0000CC0440F551F661F771F17FD4160EE0CDE
:1005C000FF1C001F111F21503040403090E05907A0
:1005D00090E0690790E4790760F32B8F3C8FDB0193
:1005E000CA018F779070A070B07080349105A1051A
:1005F000B10561F447FD0AC0E114F10401051105DC
:1006000029F0405C5F4F6F4F7F4F40781A8EFE1786
:1006100011F081E08A8F4D8F5E8F6F8F78A383E01A
:10062000898FCE0149960E94FD03A096E2E10C94C9
:100630001616A8E1B0E0EFE1F3E00C94061669832A
:100640007A838B839C832D833E834F83588789E0F5
:10065000E82EF12CEC0EFD1ECE010196B7010E9492
:10066000D2048E010F5E1F4FCE010596B8010E9485
:10067000D2048985823040F08989823028F0C70110
:10068000B8010E944A0501C08FEF6896E6E00C941D
:100690002216A8E1B0E0EFE4F3E00C9406166983BB
:1006A0007A838B839C832D833E834F83588789E095
:1006B000E82EF12CEC0EFD1ECE010196B7010E9432
:1006C000D2048E010F5E1F4FCE010596B8010E9425
:1006D000D2048985823040F08989823028F0C701B0
:1006E000B8010E944A0501C08FEF6896E6E00C94BD
:1006F0002216A8E1B0E0EFE7F3E00C940616698358
:100700007A838B839C832D833E834F83588789E034
:10071000E82EF12CEC0EFD1ECE010196B7010E94D1
:10072000D2048E010F5E1F4FCE010596B8010E94C4
:10073000D2048985823040F08989823028F0C7014F
:10074000B8010E944A0501C081E06896E6E00C9479
:100750002216ACE0B0E0EFEAF3E00C940A166983ED
:100760007A838B839C83CE010196BE016B5F7F4FA2
:100770000E94D2048D81823061F1823050F1843048
:1007800021F48E81882351F12EC02F81388537FDC9
:1007900020C06E812F3131051CF06623F9F023C093
:1007A0008EE190E0821B930B29853A854B855C8511
:1007B00004C056954795379527958A95D2F76623B5
:1007C000B1F050954095309521953F4F4F4F5F4F79
:1007D0000EC020E030E040E050E009C02FEF3FEFD6
:1007E0004FEF5FE704C020E030E040E050E8B9019F
:1007F000CA012C96E2E00C942616DF92EF92FF924B
:100800000F931F93FC01E480F58006811781D1804E
:100810008081823048F480E090E0A0E1B0E0E82AF6
:10082000F92A0A2B1B2BA5C0843009F49FC0823003
:1008300021F4EE24FF24870105C0E114F104010531
:10084000110519F4E0E0F0E096C0628173819FEF3A
:10085000623879070CF05BC022E83FEF261B370BAC
:100860002A3131052CF020E030E040E050E02AC091
:10087000B801A701022E04C0769567955795479554
:100880000A94D2F781E090E0A0E0B0E004C0880FC5
:10089000991FAA1FBB1F2A95D2F70197A109B10979
:1008A0008E219F21A023B1230097A105B10521F03E
:1008B00081E090E0A0E0B0E09A01AB01282B392B59
:1008C0004A2B5B2BDA01C9018F779070A070B07052
:1008D00080349105A105B10539F427FF09C0205CDA
:1008E0003F4F4F4F5F4F04C0215C3F4F4F4F5F4F13
:1008F000E0E0F0E02030A0E03A07A0E04A07A0E402
:100900005A0710F0E1E0F0E079018A0127C0603871
:10091000710564F5FB01E158FF4FD801C7018F77DE
:100920009070A070B07080349105A105B10539F4C4
:10093000E7FE0DC080E490E0A0E0B0E004C08FE3EB
:1009400090E0A0E0B0E0E80EF91E0A1F1B1F17FFA1
:1009500005C016950795F794E794319687E01695AC
:100960000795F794E7948A95D1F705C0EE24FF2404
:100970008701EFEFF0E06E2F679566276795902F60
:100980009F77D794DD24D7948E2F8695492F462BB9
:10099000582F5D29B701CA011F910F91FF90EF9069
:1009A000DF900895FC01DB01408151812281622F9B
:1009B0006F7770E0221F2227221F9381892F880FD3
:1009C000822B282F30E0991F9927991F11969C930D
:1009D000119721153105A9F54115510561057105DD
:1009E00011F482E037C082E89FEF13969C938E93B8
:1009F00012979A01AB0167E0220F331F441F551F66
:100A00006A95D1F783E08C930DC0220F331F441FEA
:100A1000551F12968D919C911397019713969C9355
:100A20008E931297203080E0380780E0480780E4FA
:100A3000580758F314962D933D934D935C93179755
:100A400008952F3F310579F4411551056105710570
:100A500019F484E08C93089564FF03C081E08C93C3
:100A600012C01C9210C02F57304013963C932E9307
:100A7000129783E08C9387E0440F551F661F771F02
:100A80008A95D1F7706414964D935D936D937C9322
:100A9000179708951F93DC01FB019C91923008F495
:100AA00047C08081823008F443C0943051F41196DD
:100AB0001C91843099F58181682F70E0611B710968
:100AC0003FC0843021F0923031F48230B9F181811D
:100AD000882389F12DC011961C9111978230F1F075
:100AE00081811817D9F412962D913C911397828128
:100AF00093818217930794F028173907BCF0149656
:100B00008D919D910D90BC91A02D248135814681C0
:100B10005781281739074A075B0718F4112341F05A
:100B20000AC082179307A407B50740F4112319F0F0
:100B300061E070E005C06FEF7FEF02C060E070E041
:100B4000CB011F910895DF93CF93CDB7DEB7EAE3D2
:100B5000F0E08FEF8083E7E3F0E08FEF8083E4E362
:100B6000F0E080EF8083E1E3F0E08BEF8083CF91D2
:100B7000DF910895DF93CF93CDB7DEB72B970FB6F4
:100B8000F894DEBF0FBECDBF8A836B8319828A8142
:100B90008830D8F58B81282F30E03B872A878A85DB
:100BA0009B85009731F02A853B8521303105B1F0D6
:100BB00029C0ABE3B0E0EBE3F0E08081482F8A810D
:100BC000282F30E081E090E0022E02C0880F991FAC
:100BD0000A94E2F7809584238C93EBC0ABE3B0E0FA
:100BE000EBE3F0E08081482F8A81282F30E081E01C
:100BF00090E0022E02C0880F991F0A94E2F7842B1E
:100C00008C93D7C082E08983D4C08A81883008F46D
:100C100042C08A81803108F03EC08A8187708A8311
:100C20008B81282F30E03987288788859985009720
:100C300031F02885398521303105B1F029C0A8E38C
:100C4000B0E0E8E3F0E08081482F8A81282F30E08F
:100C500081E090E0022E02C0880F991F0A94E2F70B
:100C6000809584238C93A5C0A8E3B0E0E8E3F0E08E
:100C70008081482F8A81282F30E081E090E0022E89
:100C800002C0880F991F0A94E2F7842B8C9391C0BD
:100C900082E089838EC08A81803108F442C08A81D3
:100CA000883108F03EC08A8187708A838B81282F23
:100CB00030E03F832E838E819F81009731F02E811B
:100CC0003F8121303105B1F029C0A5E3B0E0E5E373
:100CD000F0E08081482F8A81282F30E081E090E089
:100CE000022E02C0880F991F0A94E2F78095842390
:100CF0008C935FC0A5E3B0E0E5E3F0E08081482F8E
:100D00008A81282F30E081E090E0022E02C0880F17
:100D1000991F0A94E2F7842B8C934BC082E089835D
:100D200048C08A81883108F442C08A81803208F044
:100D30003EC08A8187708A838B81282F30E03D8373
:100D40002C838C819D81009731F02C813D81213055
:100D50003105B1F029C0A2E3B0E0E2E3F0E0808128
:100D6000482F8A81282F30E081E090E0022E02C0D7
:100D7000880F991F0A94E2F7809584238C9319C0F9
:100D8000A2E3B0E0E2E3F0E08081482F8A81282FDF
:100D900030E081E090E0022E02C0880F991F0A9493
:100DA000E2F7842B8C9305C082E0898302C082E045
:100DB000898389812B960FB6F894DEBF0FBECDBF15
:100DC000CF91DF910895DF93CF9300D000D0CDB7BE
:100DD000DEB78A837C836B8319828A818830A0F492
:100DE000E9E3F0E08081282F30E08A81882F90E0CD
:100DF000A90102C0559547958A95E2F7CA0181700D
:100E0000EB81FC81808359C08A818830D0F08A814F
:100E10008031B8F48A8187708A83E6E3F0E08081CC
:100E2000282F30E08A81882F90E0A90102C05595D3
:100E300047958A95E2F7CA018170EB81FC81808336
:100E40003CC08A818031D0F08A818831B8F48A81AF
:100E500087708A83E3E3F0E08081282F30E08A8185
:100E6000882F90E0A90102C0559547958A95E2F731
:100E7000CA018170EB81FC8180831FC08A81883127
:100E8000D0F08A818032B8F48A8187708A83E0E367
:100E9000F0E08081282F30E08A81882F90E0A9013E
:100EA00002C0559547958A95E2F7CA018170EB819A
:100EB000FC81808302C082E0898389810F900F903A
:100EC0000F900F90CF91DF910895DF93CF9300D0D3
:100ED000CDB7DEB789836A8389816A810E94BA05AA
:100EE0000F900F90CF91DF910895DF93CF93CDB7FF
:100EF000DEB7CF91DF910895DF93CF93CDB7DEB703
:100F0000A5E5B0E0E5E5F0E0808182608C93A5E5A1
:100F1000B0E0E5E5F0E080818E7F8C93CF91DF91AA
:100F20000895DF93CF9300D00F92CDB7DEB78983BA
:100F30008981282F30E03B832A838A819B818130FD
:100F4000910521F12A813B81223031052CF48A81DF
:100F50009B81009761F046C02A813B812230310598
:100F600021F18A819B818330910571F13BC0A5E518
:100F7000B0E0E5E5F0E0808182608C93A5E5B0E02B
:100F8000E5E5F0E0808181608C932CC0A5E5B0E0C0
:100F9000E5E5F0E0808182608C93A5E5B0E0E5E5D1
:100FA000F0E080818E7F8C931DC0A5E5B0E0E5E583
:100FB000F0E080818D7F8C93A5E5B0E0E5E5F0E081
:100FC000808181608C930EC0A5E5B0E0E5E5F0E09E
:100FD00080818D7F8C93A5E5B0E0E5E5F0E0808130
:100FE0008E7F8C930F900F900F90CF91DF9108958B
:100FF000DF93CF93CDB7DEB7ABE5B0E0EBE5F0E044
:10100000808180648C93CF91DF910895DF93CF939B
:10101000CDB7DEB7ABE5B0E0EBE5F0E080818F7BEC
:101020008C93CF91DF910895DF93CF9300D0CDB70C
:10103000DEB79A83898389819A819093690080932E
:1010400068000F900F90CF91DF9108951F920F923B
:101050000FB60F9211242F933F934F935F936F938B
:101060007F938F939F93AF93BF93EF93FF93DF9300
:10107000CF93CDB7DEB7E0916800F0916900099594
:10108000CF91DF91FF91EF91BF91AF919F918F91A0
:101090007F916F915F914F913F912F910F900FBE74
:1010A0000F901F901895DF93CF93CDB7DEB7AFE5C4
:1010B000B0E0EFE5F0E0808180688C93CF91DF9124
:1010C0000895DF93CF93CDB7DEB7AFE5B0E0EFE59E
:1010D000F0E080818F778C93CF91DF910895DF933B
:1010E000CF9300D0CDB7DEB71A8235C019821CC0AD
:1010F0008A81482F50E08981282F30E08AE190E0F2
:10110000BC01469FC001479F900D569F900D112432
:10111000820F931FFC01E459FF4F808161E00E9420
:10112000650789818F5F89838A81282F30E08AE172
:1011300090E0AC01249FC001259F900D349F900D3D
:101140001124FC01E659FF4F90818981891780F2B3
:101150008A818F5F8A838A81882341F20F900F9062
:10116000CF91DF910895DF93CF9300D000D0CDB71A
:10117000DEB78C838FEF8A831B822FC08B816C81BB
:101180000E940A098C810E946909898389818F3FA5
:1011900009F18C81682F70E08981282F30E08B81E4
:1011A000482F50E0220F331F220F331F8AE190E0B7
:1011B000FC016E9FC0016F9F900D7E9F900D1124CA
:1011C000820F931F840F951FFC01EC58FF4F808105
:1011D0008A8318C08B818F5F8B838C81282F30E0AE
:1011E0008AE190E0AC01249FC001259F900D349FBF
:1011F000900D1124FC01E559FF4F90818B818917D7
:1012000008F4BCCF8A810F900F900F900F90CF9170
:10121000DF910895DF93CF9300D00F92CDB7DEB763
:101220008A836B8319823AC09A8189819817D1F495
:101230008B81482F50E08981282F30E08AE190E0AF
:10124000BC01469FC001479F900D569F900D1124F1
:10125000820F931FFC01E059FF4F808160E00E94E4
:10126000BA0519C08B81482F50E08981282F30E0C2
:101270008AE190E0BC01469FC001479F900D569FB8
:10128000900D1124820F931FFC01E059FF4F8081C4
:1012900061E00E94BA0589818F5F89838B81282F45
:1012A00030E08AE190E0AC01249FC001259F900DC1
:1012B000349F900D1124FC01E559FF4F90818981E5
:1012C000891708F4B1CF0F900F900F90CF91DF9155
:1012D0000895DF93CF9300D000D0CDB7DEB78C83D5
:1012E0008FEF89831A8225C08C81482F50E08A8134
:1012F000282F30E08AE190E0BC01469FC001479F63
:10130000900D569F900D1124820F931FFC01E459FC
:10131000FF4F80819E012D5F3F4FB9010E94E30680
:101320008B81882319F48A81898317C08A818F5F12
:101330008A838C81282F30E08AE190E0AC01249FE1
:10134000C001259F900D349F900D1124FC01E6599A
:10135000FF4F90818A81891738F289810F900F9011
:101360000F900F90CF91DF9108950F931F93DF930C
:10137000CF93CDB7DEB7C058D0400FB6F894DEBFDC
:101380000FBECDBFFE01E158FF4F1082FE01E158B4
:10139000FF4F10824AC7FE01E158FF4F8081282F7E
:1013A00030E0C901880F991F820F931F880F991F82
:1013B000880F991F820F931FFC01EC57FF4F80810C
:1013C000813009F052C4FE01E558FF4F80E090E003
:1013D000A0EFB1E480839183A283B3838E01095887
:1013E0001F4FFE01E558FF4F60817181828193811B
:1013F00020E030E04AE753E40E941F02DC01CB0109
:10140000F80180839183A283B383FE01E958FF4FE3
:10141000608171818281938120E030E040E85FE368
:101420000E947903882344F4FE01EB58FF4F81E0CA
:1014300090E09183808364C0FE01E958FF4F608192
:1014400071818281938120E03FEF4FE757E40E9452
:10145000190318160CF043C0FE01E558FF4F6081D8
:1014600071818281938120E030E040E251E40E946A
:101470001F02DC01CB018E010B581F4FBC01CD01B7
:101480000E944900DC01CB01F801918380831FC0D9
:10149000FE01ED58FF4F89E190E091838083FE01CA
:1014A000ED58FF4F808191810197F1F7FE01ED58D2
:1014B000FF4F91838083DE01AB58BF4FFE01EB5895
:1014C000FF4F80819181019711969C938E93FE012D
:1014D000EB58FF4F808191810097D1F627C08E0194
:1014E0000B581F4FFE01E958FF4F608171818281C7
:1014F00093810E944900DC01CB01F8019183808334
:10150000DE01AF58BF4FFE01EB58FF4F8081918144
:101510008D939C93FE01EF58FF4F8081918101973D
:10152000F1F7FE01EF58FF4F91838083FE01E158F0
:10153000FF4F8081282F30E0C901880F991F820F4B
:10154000931F880F991F880F991F820F931FFC010B
:10155000E057FF4F80818170882F90E0880F991F9E
:10156000880F991F880F991F482F4063FE01E1588B
:10157000FF4F8081282F30E0C901880F991F820F0B
:10158000931F880F991F880F991F820F931FFC01CB
:10159000E057FF4F808186958170882F90E0880FFB
:1015A000991F880F991F842BFE01E058FF4F8083FD
:1015B000FE01E158FF4FDE01A058BF4F80816C91C2
:1015C0000E942811FE01E359FF4F80E090E0A0E85F
:1015D000BFE380839183A283B3838E0107591F4F9A
:1015E000FE01E359FF4F608171818281938120E088
:1015F00030E04AE753E40E941F02DC01CB01F8010E
:1016000080839183A283B383FE01E759FF4F6081FA
:1016100071818281938120E030E040E85FE30E94A5
:101620007903882344F4FE01E959FF4F81E090E0FB
:101630009183808364C0FE01E759FF4F608171810F
:101640008281938120E03FEF4FE757E40E94190326
:1016500018160CF043C0FE01E359FF4F6081718101
:101660008281938120E030E040E251E40E941F0239
:10167000DC01CB018E0109591F4FBC01CD010E9435
:101680004900DC01CB01F801918380831FC0FE017A
:10169000EB59FF4F89E190E091838083FE01EB5984
:1016A000FF4F808191810197F1F7FE01EB59FF4FC8
:1016B00091838083DE01A959BF4FFE01E959FF4F95
:1016C00080819181019711969C938E93FE01E95937
:1016D000FF4F808191810097D1F627C08E01095973
:1016E0001F4FFE01E759FF4F608171818281938115
:1016F0000E944900DC01CB01F80191838083DE0167
:10170000AD59BF4FFE01E959FF4F808191818D9303
:101710009C93FE01ED59FF4F808191810197F1F774
:10172000FE01ED59FF4F91838083FE01E158FF4F89
:101730008081282F30E0C901880F991F820F931FE5
:10174000880F991F880F991F820F931FFC01E05784
:10175000FF4F8081869586958170882F90E0880F55
:10176000991F880F991F482F4860FE01E158FF4FCD
:101770008081282F30E0C901880F991F820F931FA5
:10178000880F991F880F991F820F931FFC01E05744
:10179000FF4F80818695869586958170882F90E091
:1017A000880F991F482BFE01E158FF4F8081282F99
:1017B00030E0C901880F991F820F931F880F991F6E
:1017C000880F991F820F931FFC01E057FF4F808104
:1017D00082958F708170842BFE01E058FF4F8083CB
:1017E000FE01E158FF4FDE01A058BF4F80816C9190
:1017F0000E942811FE01E15AFF4F80E090E0A0E82E
:10180000BFE380839183A283B3838E01055A1F4F68
:10181000FE01E15AFF4F608171818281938120E056
:1018200030E04AE753E40E941F02DC01CB01F801DB
:1018300080839183A283B383FE01E55AFF4F6081C9
:1018400071818281938120E030E040E85FE30E9473
:101850007903882344F4FE01E75AFF4F81E090E0CA
:101860009183808364C0FE01E55AFF4F60817181DE
:101870008281938120E03FEF4FE757E40E941903F4
:1018800018160CF043C0FE01E15AFF4F60817181D0
:101890008281938120E030E040E251E40E941F0207
:1018A000DC01CB018E01075A1F4FBC01CD010E9404
:1018B0004900DC01CB01F801918380831FC0FE0148
:1018C000E95AFF4F89E190E091838083FE01E95A54
:1018D000FF4F808191810197F1F7FE01E95AFF4F97
:1018E00091838083DE01A75ABF4FFE01E75AFF4F65
:1018F00080819181019711969C938E93FE01E75A06
:10190000FF4F808191810097D1F627C08E01075A41
:101910001F4FFE01E55AFF4F6081718182819381E3
:101920000E944900DC01CB01F80191838083DE0134
:10193000AB5ABF4FFE01E75AFF4F808191818D93D3
:101940009C93FE01EB5AFF4F808191810197F1F743
:10195000FE01EB5AFF4F91838083FE01E158FF4F58
:10196000808161E00E942811FE01EF5AFF4F80E064
:1019700090E0A0E0B0E480839183A283B3838E01E2
:10198000035B1F4FFE01EF5AFF4F6081718182811F
:10199000938120E030E04AE753E40E941F02DC011B
:1019A000CB01F80180839183A283B383FE01E35BC3
:1019B000FF4F608171818281938120E030E040E8B7
:1019C0005FE30E947903882344F4FE01E55BFF4F47
:1019D00081E090E09183808364C0FE01E35BFF4F70
:1019E000608171818281938120E03FEF4FE757E46E
:1019F0000E94190318160CF043C0FE01EF5AFF4F66
:101A0000608171818281938120E030E040E251E485
:101A10000E941F02DC01CB018E01055B1F4FBC0140
:101A2000CD010E944900DC01CB01F8019183808344
:101A30001FC0FE01E75BFF4F89E190E09183808347
:101A4000FE01E75BFF4F808191810197F1F7FE0175
:101A5000E75BFF4F91838083DE01A55BBF4FFE01F3
:101A6000E55BFF4F80819181019711969C938E9346
:101A7000FE01E55BFF4F808191810097D1F627C081
:101A80008E01055B1F4FFE01E35BFF4F608171819B
:101A9000828193810E944900DC01CB01F80191838E
:101AA0008083DE01A95BBF4FFE01E55BFF4F8081B4
:101AB00091818D939C93FE01E95BFF4F8081918121
:101AC0000197F1F7FE01E95BFF4F91838083FE01EF
:101AD000E158FF4F8081282F30E0C901880F991FFE
:101AE000820F931F880F991F880F991F820F931FD2
:101AF000FC01E057FF4F8081829586958770817049
:101B0000882F90E0880F991F482F4460FE01E1580C
:101B1000FF4F8081282F30E0C901880F991F820F65
:101B2000931F880F991F880F991F820F931FFC0125
:101B3000E057FF4F808182958695869583708170EE
:101B4000842BFE01E058FF4F8083FE01E158FF4FD8
:101B5000DE01A058BF4F80816C910E942811FE01C8
:101B6000ED5BFF4F80E090E0A0E8BFE380839183CE
:101B7000A283B3838E01015C1F4FFE01ED5BFF4F1B
:101B8000608171818281938120E030E04AE753E4F3
:101B90000E941F02DC01CB01F80180839183A283A4
:101BA000B383FE01FF96608171818281938120E081
:101BB00030E040E85FE30E94790388232CF481E061
:101BC00090E09EAF8DAF46C0FE01FF9660817181AF
:101BD0008281938120E03FEF4FE757E40E94190391
:101BE000181664F5FE01ED5BFF4F60817181828103
:101BF000938120E030E040E251E40E941F02DC01CA
:101C0000CB01BC01CD010E944900DC01CB019EAF9C
:101C10008DAF0FC089E190E09CAF8BAF8BAD9CADD9
:101C20000197F1F79CAF8BAF8DAD9EAD01979EAF45
:101C30008DAF8DAD9EAD009769F7EEC2FE01FF96A8
:101C400060817181828193810E944900DC01CB0116
:101C50009EAF8DAF8DAD9EAD9AAF89AF89AD9AAD78
:101C60000197F1F79AAF89AFD7C2FE01E158FF4F54
:101C7000808162E20E94281181E080939200FE013F
:101C8000E158FF4F8081282F30E0C901880F991F4C
:101C9000820F931F880F991F880F991F820F931F20
:101CA000FC01E057FF4F80818170882F90E096956E
:101CB000982F882797958795482FFE01E158FF4F69
:101CC0008081282F30E0C901880F991F820F931F50
:101CD000880F991F880F991F820F931FFC01E057EF
:101CE000FF4F808186958170882F90E00024969523
:101CF00087950794969587950794982F802D842B28
:101D0000FE01E058FF4F8083FE01E158FF4FDE01E6
:101D1000A058BF4F80816C910E94281110929200B0
:101D200080E090E0A0E8BFE38DAB9EABAFABB8AF77
:101D30006DA97EA98FA998AD20E030E04AE753E471
:101D40000E941F02DC01CB0189AB9AABABABBCABF1
:101D500069A97AA98BA99CA920E030E040E85FE35B
:101D60000E94790388232CF481E090E098AB8FA740
:101D70003FC069A97AA98BA99CA920E03FEF4FE752
:101D800057E40E94190318164CF56DA97EA98FA976
:101D900098AD20E030E040E251E40E941F02DC01F7
:101DA000CB01BC01CD010E944900DC01CB0198AB05
:101DB0008FA70FC089E190E09EA78DA78DA59EA556
:101DC0000197F1F79EA78DA78FA598A9019798ABCA
:101DD0008FA78FA598A9009769F714C069A97AA958
:101DE0008BA99CA90E944900DC01CB0198AB8FA76D
:101DF0008FA598A99CA78BA78BA59CA50197F1F708
:101E00009CA78BA7FE01E158FF4F8081282F30E06F
:101E1000C901880F991F820F931F880F991F880F80
:101E2000991F820F931FFC01E057FF4F8081869519
:101E300086958170882F90E0880F991F880F991FD1
:101E4000482F4860FE01E158FF4F8081282F30E085
:101E5000C901880F991F820F931F880F991F880F40
:101E6000991F820F931FFC01E057FF4F80818695D9
:101E7000869586958170882F90E0880F991F482B52
:101E8000FE01E158FF4F8081282F30E0C901880F03
:101E9000991F820F931F880F991F880F991F820F18
:101EA000931FFC01E057FF4F808182958F708170F6
:101EB000842BFE01E058FF4F8083FE01E158FF4F65
:101EC000DE01A058BF4F80816C910E94281180E0F4
:101ED00090E0A0E8BFE38FA398A7A9A7BAA76FA136
:101EE00078A589A59AA520E030E04AE753E40E944E
:101EF0001F02DC01CB018BA39CA3ADA3BEA36BA1EE
:101F00007CA18DA19EA120E030E040E85FE30E942B
:101F1000790388232CF481E090E09AA389A33FC041
:101F20006BA17CA18DA19EA120E03FEF4FE757E47C
:101F30000E94190318164CF56FA178A589A59AA5DA
:101F400020E030E040E251E40E941F02DC01CB01BE
:101F5000BC01CD010E944900DC01CB019AA389A3F9
:101F60000FC089E190E098A38F8F8F8D98A1019782
:101F7000F1F798A38F8F89A19AA101979AA389A3BA
:101F800089A19AA1009769F714C06BA17CA18DA1CA
:101F90009EA10E944900DC01CB019AA389A389A1DB
:101FA0009AA19E8F8D8F8D8D9E8D0197F1F79E8FBB
:101FB0008D8FFE01E158FF4F808161E00E94281162
:101FC00080E090E0A0E0B0E4898F9A8FAB8FBC8F67
:101FD000698D7A8D8B8D9C8D20E030E04AE753E44B
:101FE0000E941F02DC01CB018D8B9E8BAF8BB88FC3
:101FF0006D897E898F89988D20E030E040E85FE32D
:102000000E94790388232CF481E090E09C8B8B8BD9
:102010003FC06D897E898F89988D20E03FEF4FE723
:1020200057E40E94190318164CF5698D7A8D8B8D33
:102030009C8D20E030E040E251E40E941F02DC0170
:10204000CB01BC01CD010E944900DC01CB019C8B7E
:102050008B8B0FC089E190E09A8B898B89899A8953
:102060000197F1F79A8B898B8B899C8901979C8BBF
:102070008B8B8B899C89009769F714C06D897E8949
:102080008F89988D0E944900DC01CB019C8B8B8B42
:102090008B899C89988B8F878F8598890197F1F719
:1020A000988B8F87FE01E158FF4F8081282F30E009
:1020B000C901880F991F820F931F880F991F880FDE
:1020C000991F820F931FFC01E057FF4F808182957B
:1020D000869587708170882F90E0880F991F482F10
:1020E0004460FE01E158FF4F8081282F30E0C90194
:1020F000880F991F820F931F880F991F880F991FB0
:10210000820F931FFC01E057FF4F808182958695D7
:10211000869583708170842BFE01E058FF4F808389
:10212000FE01E158FF4FDE01A058BF4F80816C9146
:102130000E94281180E090E0A0E8BFE38B879C8795
:10214000AD87BE876B857C858D859E8520E030E0E0
:102150004AE753E40E941F02DC01CB018F8398877A
:10216000A987BA876F81788589859A8520E030E0D4
:1021700040E85FE30E94790388232CF481E090E03B
:102180009E838D833FC06F81788589859A8520E005
:102190003FEF4FE757E40E94190318164CF56B8583
:1021A0007C858D859E8520E030E040E251E40E94F0
:1021B0001F02DC01CB01BC01CD010E944900DC0102
:1021C000CB019E838D830FC089E190E09C838B833C
:1021D0008B819C810197F1F79C838B838D819E81FC
:1021E00001979E838D838D819E81009769F714C02E
:1021F0006F81788589859A850E944900DC01CB0131
:102200009E838D838D819E819A83898389819A8122
:102210000197F1F79A838983DE01A158BF4FFE0130
:10222000E158FF4F80818F5F8C93FE01E158FF4F93
:102230008081882309F4AFC8C058DF4F0FB6F894E7
:10224000DEBF0FBECDBFCF91DF911F910F910895DB
:10225000DF93CF9300D0CDB7DEB789836A838981BE
:10226000282F30E0C901880F991F820F931F880F14
:10227000991F880F991F820F931FFC01EB57FF4F87
:10228000808160E00E94BA0589816A810E94721192
:102290000F900F90CF91DF910895DF93CF9300D0EF
:1022A000CDB7DEB789836A838981282F30E0C901E1
:1022B000880F991F820F931F880F991F880F991FEE
:1022C000820F931FFC01EB57FF4F808161E00E945A
:1022D000BA0589816A810E9472110F900F90CF9187
:1022E000DF910895DF93CF9300D0CDB7DEB7898318
:1022F0006A838981282F30E0C901880F991F820FD6
:10230000931F880F991F880F991F820F931FFC013D
:10231000EC57FF4F8081813031F480E069814A8140
:102320000E94C5112DC08981282F30E0C901880F76
:10233000991F820F931F880F991F880F991F820F73
:10234000931FFC01EA57FF4F808160E00E94BA05AD
:1023500080919200813031F484E069814A810E9449
:10236000C5110EC084E069814A810E94C5118A812D
:102370008295807F8A8384E069814A810E94C511A9
:102380000F900F90CF91DF910895DF93CF93CDB74A
:10239000DEB7A0970FB6F894DEBF0FBECDBF8E8F0D
:1023A0006F8F48A38F8D282F30E0C901880F991FA8
:1023B000820F931F880F991F880F991F820F931FF9
:1023C000FC01EA57FF4F808160E00E94BA058F8DC3
:1023D000282F30E0C901880F991F820F931F880FA3
:1023E000991F880F991F820F931FFC01E957FF4F18
:1023F000808161E00E94BA058E8D8D8F2DC08F8DFA
:10240000282F30E08D8D482F50E0C901880F991F8B
:10241000820F931F880F991F880F991F820F931F98
:10242000840F951FFC01E857FF4F408188A1282F9A
:1024300030E08D8D882F90E0B90102C075956795C9
:102440008A95E2F7CB01982F9170842F692F0E9413
:10245000BA058D8D8F5F8D8F8D8D883080F280E0F5
:1024600090E0A0E8BFE3898F9A8FAB8FBC8F698D16
:102470007A8D8B8D9C8D20E030E04AE753E40E94FA
:102480001F02DC01CB018D8B9E8BAF8BB88F6D89CA
:102490007E898F89988D20E030E040E85FE30E94DC
:1024A000790388232CF481E090E09C8B8B8B3FC0D8
:1024B0006D897E898F89988D20E03FEF4FE757E443
:1024C0000E94190318164CF5698D7A8D8B8D9C8DA1
:1024D00020E030E040E251E40E941F02DC01CB0129
:1024E000BC01CD010E944900DC01CB019C8B8B8B90
:1024F0000FC089E190E09A8B898B89899A8901972D
:10250000F1F79A8B898B8B899C8901979C8B8B8B9C
:102510008B899C89009769F714C06D897E898F89A2
:10252000988D0E944900DC01CB019C8B8B8B8B89A1
:102530009C89988B8F878F8598890197F1F7988B65
:102540008F878F8D282F30E0C901880F991F820F48
:10255000931F880F991F880F991F820F931FFC01EB
:10256000E957FF4F808160E00E94BA0580E090E06B
:10257000A0E8BFE38B879C87AD87BE876B857C8592
:102580008D859E8520E030E04AE753E40E941F02DB
:10259000DC01CB018F839887A987BA876F81788503
:1025A00089859A8520E030E040E85FE30E94790366
:1025B00088232CF481E090E09E838D833FC06F815F
:1025C000788589859A8520E03FEF4FE757E40E94A0
:1025D000190318164CF56B857C858D859E8520E04A
:1025E00030E040E251E40E941F02DC01CB01BC015B
:1025F000CD010E944900DC01CB019E838D830FC079
:1026000089E190E09C838B838B819C810197F1F71A
:102610009C838B838D819E8101979E838D838D8189
:102620009E81009769F714C06F81788589859A85A6
:102630000E944900DC01CB019E838D838D819E81A8
:102640009A83898389819A810197F1F79A83898393
:10265000A0960FB6F894DEBF0FBECDBFCF91DF912D
:102660000895DF93CF93CDB7DEB7AB970FB6F8944D
:10267000DEBF0FBECDBF0E94A3050E94B5090E9418
:102680006F080E947C070E94F80787E495E10E948A
:1026900014080E94530880E061E00E942811809194
:1026A0009900813009F083C01092990080E061E0C8
:1026B0000E94281180E090E0A0E2B1E48FA398A7E7
:1026C000A9A7BAA76FA178A589A59AA520E030E0AF
:1026D0004AE753E40E941F02DC01CB018BA39CA3B9
:1026E000ADA3BEA36BA17CA18DA19EA120E030E093
:1026F00040E85FE30E94790388232CF481E090E0B6
:102700009AA389A33FC06BA17CA18DA19EA120E0CB
:102710003FEF4FE757E40E94190318164CF56FA1DD
:1027200078A589A59AA520E030E040E251E40E9416
:102730001F02DC01CB01BC01CD010E944900DC017C
:10274000CB019AA389A30FC089E190E098A38F8F52
:102750008F8D98A10197F1F798A38F8F89A19AA1E6
:1027600001979AA389A389A19AA1009769F714C038
:102770006BA17CA18DA19EA10E944900DC01CB012F
:102780009AA389A389A19AA19E8F8D8F8D8D9E8DED
:102790000197F1F79E8F8D8F109293001092940005
:1027A00010929500109296001092970078CF80E0DA
:1027B0000E94B30880939800809198008F3F09F49D
:1027C0006ECF809198008D3309F094C0809197006E
:1027D000833009F064CF8091930090919400209110
:1027E0009500692F422F0E945A158BA780E06DE358
:1027F0000E944D118BA5882F90E00E94B21580E0B9
:1028000090E0AAEFB4E4898F9A8FAB8FBC8F698D6B
:102810007A8D8B8D9C8D20E030E04AE753E40E9456
:102820001F02DC01CB018D8B9E8BAF8BB88F6D8926
:102830007E898F89988D20E030E040E85FE30E9438
:10284000790388232CF481E090E09C8B8B8B3FC034
:102850006D897E898F89988D20E03FEF4FE757E49F
:102860000E94190318164CF5698D7A8D8B8D9C8DFD
:1028700020E030E040E251E40E941F02DC01CB0185
:10288000BC01CD010E944900DC01CB019C8B8B8BEC
:102890000FC089E190E09A8B898B89899A89019789
:1028A000F1F79A8B898B8B899C8901979C8B8B8BF9
:1028B0008B899C89009769F714C06D897E898F89FF
:1028C000988D0E944900DC01CB019C8B8B8B8B89FE
:1028D0009C89988B8F878F8598890197F1F7988BC2
:1028E0008F8710929300109294001092950010928E
:1028F0009700D5CE80919700882379F48091980035
:10290000833459F0809198008093930090919300C4
:1029100080E0692F0E944D1142C080919700813064
:1029200079F480919800833459F0809198008093D5
:1029300095009091950080E0692F0E944D112FC065
:1029400080919700823079F480919800833459F017
:1029500080919800809394009091940080E0692F7A
:102960000E944D111CC0809197008330C1F480916A
:1029700098008334A1F0809193009091940020916D
:102980009500692F422F0E945A158093960010924D
:10299000970080919600882F90E00E94B21580E009
:1029A00090E0AAEFB4E48B879C87AD87BE876B85E8
:1029B0007C858D859E8520E030E04AE753E40E94C7
:1029C0001F02DC01CB018F839887A987BA876F81AB
:1029D000788589859A8520E030E040E85FE30E94B1
:1029E000790388232CF481E090E09E838D833FC09F
:1029F0006F81788589859A8520E03FEF4FE757E41E
:102A00000E94190318164CF56B857C858D859E8573
:102A100020E030E040E251E40E941F02DC01CB01E3
:102A2000BC01CD010E944900DC01CB019E838D8356
:102A30000FC089E190E09C838B838B819C810197FF
:102A4000F1F79C838B838D819E8101979E838D837B
:102A50008D819E81009769F714C06F817885898583
:102A60009A850E944900DC01CB019E838D838D8174
:102A70009E819A83898389819A810197F1F79A834C
:102A80008983809197008F5F8093970008CEDF93B2
:102A9000CF93CDB7DEB780E00E94B3088093980053
:102AA00080919800833419F481E080939900CF914C
:102AB000DF910895DF93CF9300D000D000D0CDB741
:102AC000DEB78A836B834C838A8180538A838B81B0
:102AD00080538B838C81282F30E03E832D838D8122
:102AE0009E818B329105B1F02D813E812C323105D2
:102AF00034F48D819E818A329105B1F028C02D81F8
:102B00003E812D32310559F08D819E818F329105A4
:102B100091F01DC08A819B81890F898319C08A81A8
:102B20009B81891B898314C08A819B81899F802D09
:102B3000112489830DC08B81882339F08A819B8180
:102B4000692F0E94EE15898303C0198201C0198282
:102B5000898126960FB6F894DEBF0FBECDBFCF9108
:102B6000DF910895DF93CF93CDB7DEB728970FB6E7
:102B7000F894DEBF0FBECDBF98878F838F81988575
:102B80009E012E5F3F4FB9014AE050E00E9431168E
:102B9000198210C08981282F30E0CE010296FC01F5
:102BA000E20FF31F908180E0692F0E944D1189810F
:102BB0008F5F89838981282F30E0CE010296FC0146
:102BC000E20FF31F8081882329F728960FB6F89427
:102BD000DEBF0FBECDBFCF91DF910895991B79E085
:102BE00004C0991F961708F0961B881F7A95C9F79D
:102BF000809508952F923F924F925F926F927F92AD
:102C00008F929F92AF92BF92CF92DF92EF92FF92FC
:102C10000F931F93CF93DF93CDB7DEB7CA1BDB0BA8
:102C20000FB6F894DEBF0FBECDBF09942A8839884D
:102C300048885F846E847D848C849B84AA84B98454
:102C4000C884DF80EE80FD800C811B81AA81B98160
:102C5000CE0FD11D0FB6F894DEBF0FBECDBFED0174
:102C60000895FB019F01E8944230C4F04532B4F46A
:102C70004A3029F497FB1EF4909581959F4F642F5D
:102C800077270E946216805D8A330CF0895D8193FC
:102C9000CB010097A1F716F45DE251931082C901B0
:102CA0000C945216DC01FC01672F71917723E1F738
:102CB000329704C07C916D9370836291AE17BF0709
:102CC000C8F30895AA1BBB1B51E107C0AA1FBB1F75
:102CD000A617B70710F0A61BB70B881F991F5A95A8
:102CE000A9F780959095BC01CD010895F894FFCF88
:102CF0000000000000000000750704041011121A03
:102D0000141516173738392F3435362A3132332D0A
:102D100043303D2B0018191B000102031C1D1E1F10
:022D20003D0074
:00000001FF
