:100000000C942A000C9447000C9447000C94470071
:100010000C9447000C9447000C9447000C94470044
:100020000C9447000C9447000C94D0020C94FD02F1
:100030000C9447000C9447000C9447000C94470024
:100040000C9447000C9447000C9447000C94470014
:100050000C94470011241FBECFE5D4E0DEBFCDBF16
:1000600010E0A0E6B0E0EAEFF6E002C005900D92E5
:10007000A436B107D9F710E0A4E6B0E001C01D92A4
:10008000A736B107E1F70E9467030C947B030C9439
:100090000000DF93CF93CDB7DEB7EAE3F0E08FEF58
:1000A0008083E7E3F0E08FEF8083E4E3F0E08FEF1D
:1000B0008083E1E3F0E083E08083CF91DF910895D6
:1000C000DF93CF93CDB7DEB72B970FB6F894DEBF93
:1000D0000FBECDBF8A836B8319828A818830D8F5A1
:1000E0008B81282F30E03B872A878A859B85009764
:1000F00031F02A853B8521303105B1F029C0ABE3D1
:10010000B0E0EBE3F0E08081482F8A81282F30E0D7
:1001100081E090E0022E02C0880F991F0A94E2F756
:10012000809584238C93EBC0ABE3B0E0EBE3F0E08D
:100130008081482F8A81282F30E081E090E0022ED4
:1001400002C0880F991F0A94E2F7842B8C93D7C0C2
:1001500081E08983D4C08A81883008F442C08A81D2
:10016000803108F03EC08A8187708A838B81282F76
:1001700030E03987288788859985009731F0288570
:10018000398521303105B1F029C0A8E3B0E0E8E3BA
:10019000F0E08081482F8A81282F30E081E090E0D4
:1001A000022E02C0880F991F0A94E2F780958423DB
:1001B0008C93A5C0A8E3B0E0E8E3F0E08081482F8D
:1001C0008A81282F30E081E090E0022E02C0880F63
:1001D000991F0A94E2F7842B8C9391C081E0898364
:1001E0008EC08A81803108F442C08A81883108F04B
:1001F0003EC08A8187708A838B81282F30E03F83BD
:100200002E838E819F81009731F02E813F81213096
:100210003105B1F029C0A5E3B0E0E5E3F0E080816D
:10022000482F8A81282F30E081E090E0022E02C022
:10023000880F991F0A94E2F7809584238C935FC0FE
:10024000A5E3B0E0E5E3F0E08081482F8A81282F24
:1002500030E081E090E0022E02C0880F991F0A94DE
:10026000E2F7842B8C934BC081E0898348C08A815C
:10027000883108F442C08A81803208F03EC08A8109
:1002800087708A838B81282F30E03D832C838C817B
:100290009D81009731F02C813D8121303105B1F0F5
:1002A00029C0A2E3B0E0E2E3F0E08081482F8A8138
:1002B000282F30E081E090E0022E02C0880F991FC5
:1002C0000A94E2F7809584238C9319C0A2E3B0E0EE
:1002D000E2E3F0E08081482F8A81282F30E081E03E
:1002E00090E0022E02C0880F991F0A94E2F7842B37
:1002F0008C9305C081E0898302C081E08983898174
:100300002B960FB6F894DEBF0FBECDBFCF91DF9115
:100310000895DF93CF9300D000D0CDB7DEB78A83A6
:100320007C836B8319828A818830A0F4E9E3F0E052
:100330008081282F30E08A81882F90E0A90102C0B7
:10034000559547958A95E2F7CA018170EB81FC814A
:10035000808359C08A818830D0F08A818031B8F496
:100360008A8187708A83E6E3F0E08081282F30E07D
:100370008A81882F90E0A90102C0559547958A95FA
:10038000E2F7CA018170EB81FC8180833CC08A81E5
:100390008031D0F08A818831B8F48A8187708A836D
:1003A000E3E3F0E08081282F30E08A81882F90E01D
:1003B000A90102C0559547958A95E2F7CA01817057
:1003C000EB81FC8180831FC08A818831D0F08A81D3
:1003D0008032B8F48A8187708A83E0E3F0E080811C
:1003E000282F30E08A81882F90E0A90102C055951E
:1003F00047958A95E2F7CA018170EB81FC81808381
:1004000002C081E0898389810F900F900F900F9037
:10041000CF91DF910895DF93CF9300D0CDB7DEB7B2
:1004200089836A8389816A810E9460000F900F909E
:10043000CF91DF910895DF93CF93CDB7DEB7AFE5CE
:10044000B0E0EFE5F0E0808180688C93CF91DF91A0
:100450000895DF93CF93CDB7DEB7AFE5B0E0EFE51A
:10046000F0E080818F778C93CF91DF910895DF93B7
:10047000CF930F92CDB7DEB7198289818F7B8983A5
:100480008981877F8983898182608983E3E5F0E0C0
:10049000898180830F90CF91DF910895DF93CF936F
:1004A000CDB7DEB7A9E5B0E0E9E5F0E08081816095
:1004B0008C93CF91DF910895DF93CF93CDB7DEB7C3
:1004C000A9E5B0E0E9E5F0E080818E7F8C93CF91E3
:1004D000DF910895DF93CF93CDB7DEB7A9E5B0E004
:1004E000E9E5F0E0808182608C93CF91DF910895FF
:1004F000DF93CF93CDB7DEB7A9E5B0E0E9E5F0E053
:1005000080818D7F8C93CF91DF910895DF93CF937E
:1005100000D0CDB7DEB79A83898389819A81909381
:100520006100809360000F900F90CF91DF9108954C
:10053000DF93CF9300D0CDB7DEB79A8389838981CB
:100540009A8190936300809362000F900F90CF91F7
:10055000DF910895DF93CF930F92CDB7DEB78983F4
:10056000E2E5F0E0898180830F90CF91DF910895DB
:10057000DF93CF930F92CDB7DEB78983ECE5F0E040
:10058000898180830F90CF91DF910895DF93CF937E
:10059000CDB7DEB7E2E5F0E08081CF91DF9108953D
:1005A0001F920F920FB60F9211242F933F934F93E8
:1005B0005F936F937F938F939F93AF93BF93EF93CB
:1005C000FF93DF93CF93CDB7DEB7E0916200F09158
:1005D00063000995CF91DF91FF91EF91BF91AF91AA
:1005E0009F918F917F916F915F914F913F912F914B
:1005F0000F900FBE0F901F9018951F920F920FB67D
:100600000F9211242F933F934F935F936F937F9398
:100610008F939F93AF93BF93EF93FF93DF93CF930A
:10062000CDB7DEB7E0916000F09161000995CF9100
:10063000DF91FF91EF91BF91AF919F918F917F914A
:100640006F915F914F913F912F910F900FBE0F903F
:100650001F901895DF93CF93CDB7DEB7CF91DF9181
:100660000895DF93CF93CDB7DEB780916500909169
:100670006600019690936600809365008091650006
:100680009091660083329105F9F480916400813085
:1006900029F480E061E00E9460000AC0809164005B
:1006A000843031F480E060E00E94600010926400C9
:1006B000809164008F5F80936400109266001092B6
:1006C000650088E70E94AA02CF91DF910895DF9329
:1006D000CF93CDB7DEB70E9449000E94370288E76A
:1006E0000E94AA0281E393E00E9486020E944E02C9
:0A06F0000E941B02FFCFF894FFCF19
:0406FA002A032A03A2
:00000001FF
